:020000040800F2
:1000000000500020A93B00082D3B00082F3B0008B2
:10001000313B0008333B0008353B0008000000007E
:10002000000000000000000000000000B1190008FE
:10003000373B000800000000411A0008851A00083C
:10004000F13B0008F13B0008F13B0008F13B0008E0
:10005000F13B0008F13B0008F13B0008F13B0008D0
:10006000F13B0008F13B0008F13B0008393B000878
:10007000F13B0008F13B0008F13B0008F13B0008B0
:10008000F13B0008F13B0008453B0008F13B00084C
:10009000F13B0008F13B0008F13B0008F13B000890
:1000A000F13B0008F13B0008F13B0008F13B000880
:1000B000F13B0008F13B0008513B0008F13B000810
:1000C000F13B0008F13B0008F13B0008F13B000860
:1000D000F13B0008F13B0008F13B0008F13B000850
:1000E000F13B0008F13B0008F13B00080000000074
:1000F0000000000000000000000000000000000000
:0C01000000000000000000005FF808F1A3
:1001100010B5054C237833B9044B13B10448AFF341
:1001200000800123237010BD4C000020000000005F
:10013000643C000808B5034B1BB103490348AFF307
:10014000008008BD0000000050000020643C000852
:10015000074A08B51368032043F01003136000F04A
:1001600021FB002003F0A6FC03F0E6FB002008BD05
:1001700000200240034A044B11681B780B441360B3
:10018000704700BF2410002000000020014B1868B9
:10019000704700BF24100020436A10B59A6A12F01D
:1001A000500F1BD19A6A42F400729A621A689268E0
:1001B00002F46022B2F5602F0CD1DA6852B99A6A63
:1001C00022F480729A629A6AD2045EBF9A6A42F0FE
:1001D00001029A62184603F055FA10BD1B6ABDE889
:1001E00010401B6B1847704708B5406AFFF7FBFFCC
:1001F00008BD7047036810B55A680446900627D5B5
:100200001A68910724D5A26AD2065EBFA26A42F498
:100210000072A2629A6802F46022B2F5602F10D1D7
:10022000E26872B95A6822F020025A60A36A23F485
:100230008073A362A36ADB045EBFA36A43F0010379
:10024000A362204603F01EFA6FF0120223681A60C0
:1002500023685A68100630D51A6851072DD5A26A4E
:10026000D2065EBFA26A42F40052A2629A6802F409
:10027000E042B2F5E04F0AD05A68500516D49A68A9
:1002800002F46022B2F5602F10D1E26872B95A68A8
:1002900022F080025A60A36A23F48053A362A36A07
:1002A000D9055EBFA36A43F00103A362204600F0B4
:1002B00077FA6FF00C0223681A6023685A685206B6
:1002C0000DD51B68DB070AD5A36A204643F48033AB
:1002D000A362FFF78EFF6FF0010223681A6010BD62
:1002E0007047406A08B5836A43F040038362C36A7B
:1002F00043F00403C362FFF7F3FF08BD002373B5A7
:10030000019390F82430012B74D001234D6880F8BC
:100310002430062D02684FEA85030C6825D82B444B
:100320001F25566B053B9D4026EA050504FA03F39D
:100330002B435363092C4FEA44038D682FD90726BA
:100340002344D1681E3B9E4021EA060105FA03F3CF
:100350000B43D360A4F11003012B2BD900230022FF
:1003600080F82420184602B070BD0C2D0BD82B4409
:100370001F25166B233B9D4026EA050504FA03F36F
:100380002B431363D6E72B441F25D66A413B9D4080
:1003900026EA050504FA03F32B43D362CAE70726CE
:1003A000116923449E4021EA060105FA03F30B4339
:1003B0001361CFE7104B9A4216D193681B02CDD43C
:1003C0009368102C43F400039360C7D10B4B0C4A85
:1003D0001B68B3FBF2F20A2353430193019B002BEA
:1003E000BCD0019B013BF8E7836A43F020038362A2
:1003F0000123B4E70223B5E70024014048000020B0
:1004000040420F00002373B50193036804469A68C5
:10041000D20702D5002002B070BD9A6842F00102F6
:100420009A60124B124A1B68B3FBF2F30193019BD3
:10043000C3B9FFF7ABFE064623689D6815F00105BA
:10044000E8D1FFF7A3FE801B0228F5D9A36A84F840
:10045000245043F01003A362E36A012043F0010338
:10046000E362D8E7019B013BE0E700BF48000020C2
:1004700040420F0090F8243010B5012B044658D0AC
:10048000012380F82430FFF7BDFF00284DD1A36A77
:10049000294A23F4706323F0010343F48073A362B9
:1004A0002368934204D125494A6812F4702F32D14F
:1004B000A26A22F48012A2625A68520541BFA26A5F
:1004C00022F4405242F48052A262A26A12F4805294
:1004D0001CBFE26A22F00602E262002284F82420B5
:1004E0006FF002021A605A6842F020025A609A685D
:1004F00002F46022B2F5602F13D10F4A934205D166
:10050000A2F58062526812F4702F0AD19A6842F400
:10051000A0029A6010BDA26A42F48012A2624A68E8
:10052000CBE79A6842F48012F3E7002384F8243082
:1005300010BD022010BD00BF002801400024014072
:100540002DE9D8419046404B026804469A420F4636
:1005500002D03E498A4203D15B6813F4702F6ED1FA
:1005600094F82430012B6CD00123204684F82430E9
:10057000FFF748FF064600285DD1A06A216820F4F5
:100580007060324B20F0010040F480709942A0620C
:1005900004D12D4A536813F4702F3ED1A36A23F47B
:1005A0008013A3624B685A0505D5A36A23F4405310
:1005B00043F48053A362A36A206A13F4805318BFE4
:1005C000E36A3A4618BF23F00603E362002384F887
:1005D00024301F4B4C3183621E4BC3621E4B03639E
:1005E0006FF0020341F84C3C51F8443C43F48073F3
:1005F00041F8443C434600F057F923689A6802F4F6
:100600006022B2F5602F9A680CBF42F4A00242F457
:1006100080129A603046BDE8D881A36A43F4801303
:10062000A36253685B0541BFA06A20F4405040F4C8
:100630008050A062BFE7002384F82430EAE7012657
:10064000E8E70226E6E700BF002401400028014059
:1006500099010008E9010008E302000838B50368C1
:1006600004469A68D20701D4002038BD9A6822F067
:1006700001029A60FFF78AFD054623689B68DB0745
:10068000F2D5FFF783FD401B0228F6D9A36A0120AB
:1006900043F01003A362E36A43F00103E36238BD51
:1006A00070B50446002871D0836A23B9C36280F80C
:1006B000243003F069F92046FFF7D0FFA36A13F056
:1006C000100FA36A64D1002862D1E16923F4885332
:1006D000626823F0020343F002030A43A168A362A5
:1006E000E368B1F5807F42EA430238D0012914BFA4
:1006F00006464FF480766569012D07D1002B30D175
:10070000A369013B46EA433545F400662368B1F529
:10071000807F5D6825F4694545EA06055D609E6851
:100720001D4D05EA060545EA02059D6001D0012937
:1007300020D1216901390905DD6A25F470052943B5
:10074000D9629968154B0B409A4215D10023E36298
:10075000A36A23F0030343F00103A36270BD0E46B6
:10076000C9E7A36A43F02003A362E36A43F00103ED
:10077000E362CBE70021DFE7A36A23F0120343F033
:100780001003A362E36A43F00103E362012070BD3A
:1007900043F01003A362F9E7FDF7E1FFFE0E1FFF30
:1007A00070470000074A0002D36800F4E06023F4B9
:1007B000E0631B041B0C43F0BF6343F400330343AB
:1007C000D360704700ED00E0174B30B5DC68C4F330
:1007D0000224C4F10703251D042B28BF0423062D82
:1007E0004FF0010598BF002405FA03F303F1FF332E
:1007F00088BF033C1940A14005FA04F4013C2240A3
:10080000002842EA01024FEA0212AFBF00F1604045
:10081000064B00F00F00D2B2A5BFD2B200F5614086
:100820001A5480F8002330BD00ED00E014ED00E024
:100830000123420900F01F0003FA00F0014B43F8C6
:100840002200704700E100E010B530B314220168C7
:10085000134B84680B44B3FBF2F39B000364114B0E
:100860000A68C363436822F47F522343C46822F0BA
:1008700030022343046923434469234384692343A7
:10088000C469234313430B600122002380F8212015
:10089000836380F82030184610BD012010BD00BFD2
:1008A000F8FFFDBF00000240F0B590F82040012C99
:1008B00035D0012490F8215080F82040A5424FF017
:1008C00000064FF0020428D180F8214004688663B6
:1008D0002668076C26F001062660C66BBD40756071
:1008E000636043680568102BC36A0BBFA260A160F8
:1008F000E160E2604BB1236843F00E0323602B6894
:10090000002043F001032B60F0BD236823F00403B3
:100910002360236843F00A03F0E780F82060022098
:10092000F0BD000070B40425C66B026C3468036827
:1009300095402542196832D04D0730D51A68960681
:100940005EBF1A6822F004021A603E4A934219D030
:100950001432934218D01432934217D01432934277
:1009600017D01432934217D0143293420CBF4FF475
:1009700080034FF08063344A5360C36A002B5ED01B
:1009800070BC18470423F6E74023F4E74FF4806374
:10099000F1E74FF48043EEE74FF48023EBE70225C5
:1009A0009540254235D08D0733D51A68940606D474
:1009B0001A6822F00A021A60012280F82120214AD6
:1009C000934219D01432934218D01432934217D064
:1009D0001432934217D01432934217D014329342F8
:1009E0000CBF4FF400134FF00073174A53600023FD
:1009F00080F82030836AC1E70223F6E72023F4E77A
:100A00004FF40073F1E74FF40053EEE74FF4003377
:100A1000EBE708259540254211D009070FD5196845
:100A200021F00E011960012303FA02F27260836360
:100A300080F82130002380F82030036B9EE770BCE3
:100A4000704700BF08000240000002402DE9F74F48
:100A500000221646654BDFF8A4E1DFF8A4C14FF091
:100A600001080C6808FA06F808EA0404A0457FD1DA
:100A70004D68122D00F0AF8000F28880022D00F04A
:100A8000A7807CD8002D00F08E80012D00F09E8084
:100A90004FF00F09FF2C93BF824606F18045083DB9
:100AA000D0F800B092BFB500D0F804B0AD0009FA9C
:100AB00005F82BEA080802FA05F588BF00F1040AD8
:100AC00048EA0505CAF80050D1F804A01AF0805F82
:100AD0004ED0474D464FAD6926F0030845F001055D
:100AE000BD61BD6908F1804805F00105019508F573
:100AF000803806F0030B019D4FEA8B0BD8F80850A5
:100B000009FA0BF925EA09093A4DA84268D005F51A
:100B10008065A84266D005F58065A84264D005F5D9
:100B20008065A8420CBF0325042505FA0BF545EAAC
:100B30000905C8F808501D681AF4803F14BF254302
:100B4000A5431D605D681AF4003F14BF2543A5430B
:100B50005D609D681AF4801F14BF2543A5439D6006
:100B6000DD681AF4001F14BF2C4325EA0404DC607E
:100B70000136102E7FF473AF03B0BDE8F08F032D64
:100B800022D0112D84D1CA68043281E71A4FBD42A8
:100B900009D012D8DFF86C904D4504D009F58039A2
:100BA0004D457FF475AF8A68C2B1012A0CBFC0F809
:100BB0001080C0F8148008226AE77545F3D06545B7
:100BC000F1D0DFF84490EBE7002261E7CA685FE705
:100BD000CA6808325CE7CA680C3259E7042257E752
:100BE0000025A2E70125A0E702259EE700040140B9
:100BF00000100240000801400000211000003110E8
:100C00000000321000001110000022108368194209
:100C100014BF0120002070470AB101617047090428
:100C2000FBE7000003682DE9F341DB07054610D41C
:100C30002B689F075ED42B68190700F195802B68FD
:100C40005A0700F1BF80EA69002A40F02D81002098
:100C500014E0904C636803F00C03042B07D0636826
:100C600003F00C03082B0CD16368DE0309D523685D
:100C70009C03DDD56B68002BDAD1012002B0BDE802
:100C8000F0816B68B3F5803F10D1236843F4803363
:100C90002360FFF77BFA064623689803C8D4FFF762
:100CA00075FA801B6428F7D90320E7E79BB923680E
:100CB00023F480332360236823F480232360FFF729
:100CC00065FA064623689903B2D5FFF75FFA801BE1
:100CD0006428F7D9E8E7B3F5A02F236803D143F4DC
:100CE00080232360D1E723F480332360236823F437
:100CF0008023CDE7674C636813F00C0F07D063685F
:100D000003F00C03082B10D16368DA030DD42368B9
:100D10009B0702D52B69012BAFD123686A6923F0A9
:100D2000F80343EAC203236085E72A695A4B6AB194
:100D300001221A60FFF72AFA064623689F07ECD4BF
:100D4000FFF724FA801B0228F7D9ADE71A60FFF7F6
:100D50001DFA0646236898077FF56DAFFFF716FA70
:100D6000801B0228F6D99FE7AA694A4C4B4BDAB19F
:100D700001221A60FFF70AFA0646636A9B070DD53F
:100D80004FF4FA52464B1B68B3FBF2F3019300BFDA
:100D9000019B5A1E0192002BF9D150E7FFF7F6F99B
:100DA000801B0228E9D97FE71A60FFF7EFF90646B2
:100DB000636A9F077FF543AFFFF7E8F9801B0228BE
:100DC000F6D971E7334CE369D80024D40127E369ED
:100DD00043F08053E361E36903F080530093009B89
:100DE000304E3368D90518D5EB68012B26D1236A1C
:100DF00043F001032362FFF7C9F941F288368046C8
:100E0000236A9B073FD5002F3FF41DAFE36923F012
:100E10008053E36117E70027E2E7336843F4807308
:100E20003360FFF7B3F980463368DA05DCD4FFF7A7
:100E3000ADF9A0EB08006428F6D935E7ABB9236A11
:100E400041F2883823F001032362236A23F004036C
:100E50002362FFF79BF90646236A9807D3D5FFF76D
:100E600095F9801B4045F7D91EE7052B236A03D16E
:100E700043F004032362BAE723F001032362236AE9
:100E800023F00403B6E7FFF781F9A0EB0800B042B6
:100E9000B6D909E7001002400000424280044242F5
:100EA0004800002000700040224C636803F00C03EF
:100EB000082B3FF4E2AE00231F4E022A33602BD1F1
:100EC000FFF764F90746236899011FD42B6AB3F52D
:100ED000803F05D16268A96822F400320A4362604B
:100EE000696A62680B4322F474121343636001233E
:100EF0003360FFF74BF9054623689A013FF5A7AE2B
:100F0000FFF744F9401B0228F6D9CDE6FFF73EF97A
:100F1000C01B0228D7D9C7E6FFF738F90546236872
:100F20009B017FF594AEFFF731F9401B0228F6D9FB
:100F3000BAE600BF001002406000424230B5194BD3
:100F400087B002AC03F110052246186859680833CF
:100F500003C2AB421446F7D101238DF804300223BB
:100F600011498DF805304B6803F00C02082A17D19F
:100F7000C3F3834206A80244DB0312F8102C0CD5FD
:100F80004B680A48C3F34043504306AA134413F87E
:100F9000143CB0FBF3F007B030BD05485043FAE70E
:100FA0000248F8E77C3C00080010024000127A007A
:100FB00000093D00544A2DE9F0411368054603F04D
:100FC00007038B420E462AD329688C0734D4CA07FC
:100FD00047D44D4A136803F007039E42C0F0828055
:100FE0002A684A4C12F0040F40F08780130706D598
:100FF00063682A6923F4605343EAC2036360FFF71E
:101000009DFF6368424AC3F30313D35CD840414B4E
:101010001860002002F04EFD0020BDE8F08113684A
:1010200023F007030B431360136803F0070399428F
:10103000CAD00120BDE8F081344B11F0040F1EBF6F
:101040005A6842F4E0625A60080742BF5A6842F4A4
:1010500060525A605A68A86822F0F00202435A604F
:10106000B5E76A68294C012A23681CD113F4003FB4
:10107000DFD0636841F2883823F0030313436360D1
:10108000FFF784F86B680746012B14D1636803F0FF
:101090000C03042B9DD0FFF779F8C01B4045F5D910
:1010A0000320BDE8F081022A02D113F0007FDFE7C0
:1010B00013F0020FDCE7022B0FD1636803F00C037F
:1010C000082B86D0FFF762F8C01B4045F5D9E7E74B
:1010D000FFF75CF8C01B4045E2D8636813F00C0FC3
:1010E000F6D176E7136823F00703334313601368E0
:1010F00003F007039E429CD172E76368E96823F41A
:10110000E0630B43636071E700200240001002407F
:10111000F342000848000020044B054A5B68C3F313
:101120000223D35C034A1068D84070470010024085
:1011300003430008480000200F2303600B4B5A684C
:1011400002F0030242605A6802F0F00282605A68BC
:1011500002F4E062C2605B68DB0803F4E0630361F1
:10116000034B1B6803F007030B607047001002403D
:101170000020024003682DE9F341D907054620D538
:10118000354CE369DA0032D40127E36943F0805338
:10119000E361E36903F080530193019B2F4E3368B1
:1011A000DB0526D5236A13F4407336D1236A6A68B7
:1011B00023F44073134323621FB1E36923F0805388
:1011C000E3612868830706D5234AA968536823F496
:1011D00040430B43536010F010001BD01E4AE968D7
:1011E0005368002023F480030B43536012E0002770
:1011F000D4E7336843F480733360FEF7C7FF80465B
:101200003368D805CED4FEF7C1FFA0EB08006428F0
:10121000F6D9032002B0BDE8F0816A6802F440729A
:101220009342C3D001200E4A236A1060002023F4A9
:10123000407110602162D907B8D5FEF7A7FF41F2CF
:1012400088380646236A9A07B0D4FEF79FFF801BB2
:101250004045F7D9DDE700BF0010024000700040B4
:1012600040044242036A70B523F001030362036A3B
:10127000446882690D6822F073022A438D6823F066
:1012800002032B430A4DA8420BD1CD6823F008037B
:101290002B438E694D6924F44074354323F00403D5
:1012A0002C43446082614A684263036270BD00BFA0
:1012B000002C0140036A70B523F480730362036A53
:1012C0004468C2690D6822F073022A438D6823F4D2
:1012D000007343EA05230B4DA8420DD1CD6823F4DA
:1012E000006343EA05238E694D6924F44054354375
:1012F00023F4806344EA05144460C2614A68C2630F
:10130000036270BD002C0140036A30B523F48053A2
:101310000362036A4468C2690D6822F4E64242EA45
:1013200005228D6823F4005343EA0533064DA84295
:1013300002BF4D6924F4804444EA85144460C261CC
:101340004A680264036230BD002C0140036800203B
:10135000DA6842F00102DA601A6842F001021A60AB
:101360007047704790F83C3070B5012B4FF0020386
:101370001CD0012280F83D30036880F83C209A6838
:1013800022F47F4222F077029A600A68402A79D0DC
:1013900019D8102A00F093800AD8002A00F089801A
:1013A000012380F83D30002380F83C30184670BDA2
:1013B000202A00F08A80302AF2D19A6822F0700246
:1013C00042F0370236E0702A36D01BD8502A42D07D
:1013D000602AE5D11C6A4D6824F01004CE681C62B6
:1013E00099691A6A21F4704122F0A00242EA0512BA
:1013F00041EA063199611A629A6822F0700242F05D
:10140000670217E0B2F5805F11D0B2F5005FC7D177
:101410008A684D689C68C9682A4324F47F4442EA7C
:10142000012222439A609A6842F4804202E09A685C
:1014300022F007029A60B3E78A684D689C68C96821
:101440002A4324F47F4442EA012222439A609A68A4
:1014500042F07702EEE74C68CE68196A1D6A21F007
:101460000A0125F001051D629A69214322F0F0026C
:1014700042EA06129A6119629A6822F0700242F0FA
:101480005702D7E74C68CE68196A1D6A21F00A0135
:1014900025F001051D629A69214322F0F00242EA1B
:1014A00006129A6119629A6822F0700242F04702AD
:1014B000C0E79A6822F0700242F00702BAE79A6821
:1014C00022F0700242F01702B4E79A6822F070022C
:1014D00042F02702AEE770477047704770470368D5
:1014E00010B51A69044691070ED5DA6892070BD534
:1014F0006FF002021A6101229B6902779B0777D085
:10150000FFF7EAFF0023237723681A69500710D5F5
:10151000DA6851070DD56FF004021A6102229B6947
:10152000227713F4407F204668D0FFF7D5FF0023D1
:10153000237723681A6912070FD5DA6810070CD5CC
:101540006FF008021A610422DB69227799072046AE
:101550005AD0FFF7C1FF0023237723681A69D20608
:1015600010D5DA68D0060DD56FF010021A61082286
:10157000DB69227713F4407F20464BD0FFF7ACFFA6
:101580000023237723681A69D10708D5DA68D207C0
:1015900005D56FF0010220461A6102F0C1F92368F7
:1015A0001A69100608D5DA68110605D56FF08002B1
:1015B00020461A6100F053F923681A69520608D5CB
:1015C000DA68500605D56FF0400220461A61FFF731
:1015D00085FF23681A69910622D5DA6892061FD51D
:1015E0006FF020022046BDE810401A6100F036B9C5
:1015F000FFF771FF2046FFF770FF83E7FFF76BFFF0
:101600002046FFF76AFF92E7FFF765FF2046FFF7E6
:1016100064FFA0E7FFF75FFF2046FFF75EFFAFE73D
:1016200010BD00001A4A036890420AD0B0F1804F02
:1016300007D0A2F59432904203D002F58062904226
:1016400015D14A6823F070031343114A90420AD01F
:10165000B0F1804F07D0A2F59432904203D002F54A
:101660008062904203D1CA6823F4407313434A69ED
:1016700023F08003134303608B68C3620B688362AB
:10168000034B984204BF0B69036301234361704716
:10169000002C014010B50446A0B190F83D3003F095
:1016A000FF021BB980F83C2002F0C2F90223206837
:1016B00084F83D30211DFFF7B5FF0123002084F899
:1016C0003D3010BD012010BD10B50446A0B190F80A
:1016D0003D3003F0FF021BB980F83C20FFF741FECC
:1016E0000223206884F83D30211DFFF79BFF012372
:1016F000002084F83D3010BD012010BD036A70B594
:1017000023F010030362036A446882690D6822F4BF
:10171000E64242EA05228D6823F0200343EA0513DE
:101720000B4DA8420DD1CD6823F0800343EA051389
:101730008E694D6924F44064354323F0400344EA44
:101740008504446082614A688263036270BD00BFA1
:10175000002C014038B590F83C300446012B4FF086
:10176000020025D0012384F83D0084F83C300C2A87
:1017700018D8DFE802F0071717171E1717172F17CB
:10178000171740002068FFF76DFD236809699A6903
:1017900042F008029A619A6922F004029A619A69F9
:1017A0000A439A610123002084F83D3084F83C000C
:1017B00038BD2068FFF7A2FF236809699A6942F4DF
:1017C00000629A619A6922F480629A619A6942EA97
:1017D0000122E6E72068FFF76DFD23680969DA69F1
:1017E00042F00802DA61DA6922F00402DA61DA69A9
:1017F0000A43DA61D6E72068FFF786FD23680969A6
:10180000DA6942F40062DA61DA6922F48062DA614C
:10181000DA6942EA0122ECE790F83C3010B5012B7E
:101820004FF0020318D080F83D3003680C685A6806
:10183000496822F070025A605A6822435A609A68D6
:1018400022F080029A609A680A439A60012380F825
:101850003D30002380F83C30184610BD704770477B
:1018600008B500F0FBFD002008BD30B5B0F9084018
:1018700085B0842C08BF0024028A18BF03340B46AD
:1018800090E8220003A801900094284600F016FD7D
:10189000012814BF0020039805B030BD08B500280A
:1018A00008BF012000F028FF002008BD00F1080358
:1018B00043604FF0FF32C360036100238260036026
:1018C000704700230361704743689A684B608A60E1
:1018D0009A6851609960036808610133036070473A
:1018E0000A6830B5531C0AD103695A684A6091608E
:1018F0008B605960036808610133036030BD00F1FB
:1019000008035C682568AA42EFD32346F9E74168DB
:10191000826803698A60826851605968884208BF9A
:101920005A60002202611868013818607047000090
:101930000A4B1B68013308D04FF0500383F3118822
:10194000BFF36F8FBFF34F8FFEE74FF0500383F36A
:101950001188BFF36F8FBFF34F8FFEE704000020A5
:1019600006480068006880F3088862B661B6BFF375
:101970004F8FBFF36F8F00DF00BF000008ED00E066
:101980004FF0807340F8043C054B21F0010140F812
:10199000081C40F80C3C40F8202C4038704700BF31
:1019A00031190008000000000000000000000000E5
:1019B000074B19680868B0E8F00F80F30988BFF397
:1019C0006F8F4FF0000080F311884EF00D0E7047BE
:1019D000880C00204FF0500383F31188BFF36F8F02
:1019E000BFF34F8F0A4A13680133012B13600DD1E7
:1019F000084B1B6813F0FF0F08D04FF0500383F320
:101A00001188BFF36F8FBFF34F8FFEE7704700BFA2
:101A10000400002004ED00E0084A136843B94FF0C9
:101A2000500383F31188BFF36F8FBFF34F8FFEE72F
:101A3000013B13600BB983F3118870470400002049
:101A4000EFF30980BFF36F8F0D4B1A6820E9F00F99
:101A500010602DE908404FF0500080F3118800F02D
:101A6000A9FE4FF0000080F31188BDE80840196816
:101A70000868B0E8F00F80F30988BFF36F8F7047F4
:101A8000880C002008B54FF0500383F31188BFF392
:101A90006F8FBFF34F8F00F025FD18B14FF08052CC
:101AA000024B1A60002383F3118808BD04ED00E0A7
:101AB0004FF47A72054B1B68B3FBF2F3044A013B07
:101AC00013600722034B1A60704700BF48000020D4
:101AD00014E000E010E000E013B51F4B00211A787D
:101AE000D2B20192FF221A701B781C4ADBB28DF829
:101AF00003309DF8033003F0500313700722184B96
:101B00001A609DF80300541E00061CD401B11A602F
:101B10001A68120202F4E0621A60019B0E4ADBB2FC
:101B20001370104B1A6842F470021A601A6842F07F
:101B300070421A60FFF7BCFF00220B4B1A60FFF7E0
:101B40000FFFFFF7F5FE9DF8032001215200D2B2EE
:101B50008DF803202246D4E700E400E0680000206E
:101B60006C00002020ED00E00400002010B50F4BB9
:101B70001A68824218D35C681919884201BF41680B
:101B8000184609195960446801198A4207D1084961
:101B900009688A421FBF516812680919416098425A
:101BA000026018BF186010BD1346E1E7800C0020EA
:101BB000700000202DE9F041044600F08BFC3E4906
:101BC0003E4D0B680BBB3E4A56071DBFD01D20F093
:101BD000070002F540634FF440631CBF02461B1A26
:101BE00000201344374E083B23F007037060326037
:101BF000586018600B60981A1360334B506018607F
:101C0000324B18604FF000432B602F68274216D1EB
:101C1000002C40D004F1080358071CBF23F0070331
:101C2000083363B1294A16689046B34207D8254A5B
:101C300015686868834204D809688D4207D100247A
:101C400029E02C68002CF7D02A462546F1E72968C0
:101C500014681160C21A102A0FD9E818410708D079
:101C60004FF0500383F31188BFF36F8FBFF34F8F93
:101C7000FEE742606B60FFF779FF6B681249F61A66
:101C80001F4300230868C8F80060864238BF0E6012
:101C900008346F602B6000F0B7FC630708D04FF08A
:101CA000500383F31188BFF36F8FBFF34F8FFEE7AD
:101CB0002046BDE8F08100BF70000020740C0020B9
:101CC00074000020800C00207C0C0020780C002088
:101CD00010B5044670B3184A50F8043C1268134219
:101CE00008D14FF0500383F31188BFF36F8FBFF318
:101CF0004F8FFEE750F8081C41B14FF0500383F3BB
:101D00001188BFF36F8FBFF34F8FFEE723EA020303
:101D100040F8043C00F0DEFB084A54F8043C11682B
:101D2000A4F108000B441360FFF720FFBDE810404A
:101D300000F06ABC10BD00BF740C0020780C0020BD
:101D400070B51546026C0446866B42B905689DB9AC
:101D5000406800F06DFE65600136A66370BD6DB928
:101D6000806801F06BFFA368226C13446268A36073
:101D7000934201D32368A3600020EDE7C06801F01F
:101D80005DFF236CE2685B4221681A448A42E2608C
:101D90003EBF62689B18E360022DEDD10EB1013E9B
:101DA000EAE73046D8E703461A6C10B4084662B139
:101DB000D9685C681144A142D96028BF196810BC79
:101DC00028BFD960D96801F039BF10BC704770B521
:101DD0000446FFF7FFFD94F8455004F124066DB268
:101DE000002D14DCFF2384F84530FFF715FEFFF7C4
:101DF000F1FD94F8445004F110066DB2002D12DC90
:101E0000FF2384F84430BDE87040FFF705BE636AE5
:101E1000002BE7D0304600F021FD08B100F0AAFD0C
:101E2000013D6DB2DCE72369002BE9D0304600F0BC
:101E300015FD08B100F09EFD013D6DB2DEE700002A
:101E400038B50D46044640B94FF0500383F311886E
:101E5000BFF36F8FBFF34F8FFEE7FFF7BBFD206C23
:101E6000E36B22684343D1181B1A13446160E3609B
:101E70000021FF23A163A26084F8443084F8453038
:101E800095B9236963B104F1100000F0E7FC38B1A3
:101E90004FF08052094B1A60BFF34F8FBFF36F8F23
:101EA000FFF7BAFD012038BD04F11000FFF7FEFC7A
:101EB00004F12400FFF7FAFCF2E700BF04ED00E0B4
:101EC00070B50D46064640B94FF0500383F31188B4
:101ED000BFF36F8FBFF34F8FFEE748434830FFF7E4
:101EE00069FE044638B145B92060E66325640121E6
:101EF0002046FFF7A5FF204670BD00F148030360B0
:101F0000F3E700002DE9FF47894601921F4604468A
:101F100040B94FF0500383F31188BFF36F8FBFF3C5
:101F20004F8FFEE7002940F08880036C002B00F003
:101F300084804FF0500383F31188BFF36F8FBFF39A
:101F40004F8FFEE7019E002E00F082804FF050037D
:101F500083F31188BFF36F8FBFF34F8FFEE7019DAF
:101F60001DB9FFF759FD002058E016B902A800F08E
:101F7000B7FCFFF751FD00F0ADFAFFF72BFD94F829
:101F80004430FF2B08BF84F8448094F84530FF2B81
:101F900008BF84F84580FFF73FFD01A902A800F0C3
:101FA000AFFC002843D1FFF715FDA66BE56BFFF7EB
:101FB00033FDAE4235D1019904F1100000F034FC3C
:101FC0002046FFF704FF00F01FFB38B94FF08053A5
:101FD000CAF80030BFF34F8FBFF36F8F0126FFF7B2
:101FE000F9FCA26BE36B9A4201D3022FB7D13A46B8
:101FF00049462046FFF7A4FE636A1BB104F12400A2
:1020000000F02CFC38B14FF08052184B1A60BFF32F
:102010004F8FBFF36F8FFFF7FFFC012004B0BDE8C7
:10202000F0872046FFF7D3FE00F0EEFAD6E7204611
:10203000FFF7CDFE00F0E8FA95E7022F02D1E36B3F
:10204000012B0AD100F09CFC00283FF47BAF002656
:102050004FF00008DFF814A0C1E74FF0500383F3FE
:102060001188BFF36F8FBFF34F8FFEE704ED00E0E1
:102070002DE9FF47884601929946044640B94FF042
:10208000500383F31188BFF36F8FBFF34F8FFEE7C9
:10209000002940F0A580036C002B00F0A1804FF0D8
:1020A000500383F31188BFF36F8FBFF34F8FFEE7A9
:1020B000019E002E00F09A804FF0500383F31188A8
:1020C000BFF36F8FBFF34F8FFEE7636AE660002BAD
:1020D0006DD004F124005FE0019D1DB9FFF79CFC69
:1020E000284667E016B902A800F0FAFBFFF794FC57
:1020F00000F0F0F9FFF76EFC94F84430FF2B08BFB6
:1021000084F8447094F84530FF2B08BF84F845707C
:10211000FFF782FC01A902A800F0F2FB002852D1CF
:10212000FFF758FCA56BFFF777FC002D45D123681E
:1021300033B9FFF74FFC606800F032FCFFF76CFC2E
:10214000019904F1240000F06FFB2046FFF73FFEE9
:1021500000F05AFA38B94FF08053CAF80030BFF394
:102160004F8FBFF36F8F0126FFF734FCA56B002D57
:10217000B2D041462046E668FFF715FEB9F1000FE0
:10218000A3D12368013DA56313B900F0A1FC6060F1
:10219000236963B104F1100000F060FB38B14FF027
:1021A0008052144B1A60BFF34F8FBFF36F8FFFF74E
:1021B00033FC012004B0BDE8F0872046FFF707FE9E
:1021C00000F022FACFE72046FFF701FE00F01CFAEC
:1021D000FFF700FCA56BFFF71FFC002DC3D17FE7C5
:1021E00000F0CEFB00283FF463AF00260027DFF8A5
:1021F00004A0B9E704ED00E0064A13681968064B2D
:1022000019B94FF0FF321A6070471268D268D2686D
:102210005268F8E78C0C0020640D0020F8B51B4BC9
:102220001B4E1D68044630680F460430FFF76FFBF5
:10223000334640B901203168164EC96A3268884079
:1022400022EA00023260621C07D137B119681248D5
:102250000431BDE8F840FFF737BB2C441A68A542AB
:10226000546007D90D4A10681968BDE8F840043178
:10227000FFF736BB0A4A106819680431FFF730FBD4
:10228000084B1A68944238BF1C60F8BDAC0D0020A2
:10229000880C0020340D0020840D0020900C0020BC
:1022A0008C0C0020640D00204FF0500383F3118844
:1022B000BFF36F8FBFF34F8FFEE700002DE9F84F9C
:1022C0004FEA820A804650460F4699460B9EFFF71A
:1022D00071FC0546002800F096806420FFF76AFC38
:1022E0000446002800F08C80AAF1040A05635544D6
:1022F0007B1E25F0070A00F134021D37597802F8D9
:10230000011B13F8011F09B1BB42F7D10A9D4FF021
:10231000000B062D28BF0625271DE562656538469A
:1023200084F851B0C4F858B0FFF7CBFAC5F10705EF
:1023300004F11800FFF7C5FAC4F85CB02461A56188
:10234000646284F860B04A4641465046FFF718FB85
:10235000206006B13460FFF73DFB324B324E1A6805
:10236000DFF8F08001321A603568002D4ED13460FC
:102370001B68012B1DD108EB05001435FFF796FAF9
:102380008C2DF8D1DFF8D090284D4846FFF78EFA13
:102390002846FFF78BFA2648FFF788FA2548FFF70B
:1023A00085FA2548FFF782FA244BC3F80090244BA6
:1023B0001D600125234A244913680868013313600E
:1023C000E26A05FA02F3034314200B6000FB02806B
:1023D0003946FFF779FAFFF71FFB1C4B1B6863B107
:1023E0003368DA6AE36A9A4207D24FF08052184B98
:1023F0001A60BFF34F8FBFF36F8F2846BDE8F88F89
:102400002846FFF765FC4FF0FF35F6E70F4B1B68DA
:10241000002BCED13368DA6AE36A9A4298BF3460FF
:10242000C7E700BF200D0020880C00204C0D0020C5
:102430006C0D0020980D0020840D00208C0C0020D5
:10244000900C0020300D0020340D0020800D002065
:1024500004ED00E0940C0020380D002013B500249A
:10246000164B009401938022234615491548FFF727
:1024700025FF012814D14FF0500383F31188BFF3D7
:102480006F8FBFF34F8F4FF0FF320F4B1A600F4B20
:1024900018600F4B1C6002B0BDE81040FFF71CBB7A
:1024A000013008D14FF0500383F31188BFF36F8FD1
:1024B000BFF34F8FFEE702B010BD00BF600D0020DC
:1024C000A03C000841270008640D0020800D00207A
:1024D000AC0D0020024A136801331360704700BF3F
:1024E0002C0D00202DE9F84F3C4B1B68002B53D1DD
:1024F0003B4B1C6801341C60BCB93A4B1A6812682B
:1025000042B14FF0500383F31188BFF36F8FBFF3D5
:102510004F8FFEE7344A1968106818601160334A1B
:10252000136801331360FFF767FE314D4FF0000B66
:102530002B68304F9C423ED3DFF8A880DFF8C49070
:10254000D8F80020126872BB4FF0FF322A6032E0E8
:1025500006F1040A5046FFF7DAF9B16A19B106F13B
:102560001800FFF7D4F901224FF0140EF06AD9F8E1
:10257000003002FA00F119431F4BC9F800100EFB9E
:1025800000305146FFF7A0F93868F16AC26A9142FB
:1025900028BF4FF0010BD3E7184A4FF0000B136828
:1025A0000133136011E0D8F80020D268D668716852
:1025B0008C42CDD229603A680F4BD16A14224A432B
:1025C0009A58022A28BF4FF0010B0D4A1268002AC0
:1025D00018BF4FF0010B5846BDE8F88F2C0D0020B6
:1025E000AC0D00208C0C0020900C0020680D002009
:1025F000640D0020880C0020940C0020280D002081
:10260000B00D0020340D00202DE9F843314C236833
:1026100043B94FF0500383F31188BFF36F8FBFF3BB
:102620004F8FFEE7FFF7D6F92368013B236024684C
:102630002CB10024FFF7F0F92046BDE8F883264BC3
:102640001B68002BF5D0DFF8A890244FDFF8A4809A
:10265000D9F80030E3B90CB1FFF7CEFD204D2C685E
:1026600044B101271F4EFFF73DFF00B13760013C29
:10267000F9D12C601B4B1B68002BDAD04FF0805235
:10268000194B1A60BFF34F8FBFF36F8F0124D1E74F
:10269000D9F80C300125DC68261D04F11800FFF77D
:1026A00036F93046FFF733F91420E26A396805FA43
:1026B00002F30B4300FB028031463B60FFF704F955
:1026C0000A4BE26A1B68DB6A9A4224BF054B1D6015
:1026D000BEE700BF2C0D0020200D0020340D00208F
:1026E000280D0020B00D002004ED00E0880C002033
:1026F0006C0D0020940C002008B540B94FF08052BA
:102700000D4B1A60BFF34F8FBFF36F8F08BD0B4B9C
:10271000196841B14FF0500383F31188BFF36F8FF5
:10272000BFF34F8FFEE7FFF7D5FEFFF777FDFFF70B
:102730006BFF0028E2D008BD04ED00E02C0D002066
:1027400008B5174E174C236863B9174B1B68012B4C
:10275000F8D94FF08052154B1A60BFF34F8FBFF37B
:102760006F8FEFE7FFF7B6FE3568FFF74DFF002DDF
:10277000E9D0FFF72FF9F368DD68281DFFF7C7F8E8
:102780000B4A1368013B13602368013B2360FFF78A
:1027900043F9286BFFF79CFA2846FFF799FAD2E72E
:1027A000980D0020240D0020940C002004ED00E082
:1027B000200D0020174B10B51A68174B12B10122DB
:1027C0001A6010BD1A60154B1B68B3FA83F314220C
:1027D000DBB2C3F11F035A4311498C58881844B91E
:1027E0004FF0500383F31188BFF36F8FBFF34F8F08
:1027F000FEE74468083264680A44944208BF62688D
:10280000446008BF4260142202FB03135B68DA686D
:10281000044BD5E72C0D0020B00D0020340D002016
:10282000940C0020880C002010B50C4640B94FF0E5
:10283000500383F31188BFF36F8FBFF34F8FFEE711
:10284000054B19681831FFF74BF82046BDE81040DA
:102850000121FFF7E3BC00BF880C002038B5C36836
:10286000DC6844B94FF0500383F31188BFF36F8FD6
:10287000BFF34F8FFEE704F118052846FFF747F82E
:10288000114B1B68E3B9251D2846FFF740F80123CB
:102890000E49E26A08689340034314200B602946FE
:1028A0000B4B00FB0230FFF70FF80A4BE26A1B6884
:1028B000DB6A9A4285BF0120074B0020186038BDB3
:1028C00029460648EFE700BF2C0D0020340D0020FC
:1028D000940C0020880C0020B00D00206C0D00200E
:1028E00008B508B9FFF7E0FC034B1B680360034B16
:1028F0001B68436008BD00BF680D0020AC0D0020C0
:1029000038B50D46044640B94FF0500383F31188A3
:10291000BFF36F8FBFF34F8FFEE741B94FF0500306
:1029200083F31188BFF36F8FBFF34F8FFEE7FFF77D
:1029300051F80E4B19682B685A1C10D00C4A2068AD
:1029400012689042626801D091420DD2881A834287
:102950000AD95B1A13442B602046FFF7C1FF0024FD
:10296000FFF75AF8204638BD0124F9E7AC0D0020E6
:10297000680D00200122014B1A607047B00D002045
:10298000054B1B6833B1054B1B68002B0CBF0220A5
:102990000020704701207047800D00202C0D002082
:1029A0002DE9F0410446002839D01E4DC36A2A683B
:1029B000D26A934233D2142782691B4E002AA8BFE1
:1029C0002A6807FB0363A2BFD26AC2F107028261D1
:1029D00042699A4220D100F104084046FEF797FF71
:1029E000124A48B9E06A4743F3592BB901211368E9
:1029F000814023EA010313602B681168D86A012320
:102A000083400B4313601423E062414603FB0060E4
:102A1000BDE8F041FEF758BF2B68DB6AC362BDE832
:102A2000F08100BF880C0020940C0020340D0020A1
:102A3000F8B5044608B90020F8BD224B1B6898423F
:102A400008D04FF0500383F31188BFF36F8FBFF3AB
:102A50004F8FFEE7836D43B94FF0500383F3118826
:102A6000BFF36F8FBFF34F8FFEE7C16A426D013B2B
:102A700091428365DFD0002BDDD1051D2846FEF78E
:102A800046FF114E114A50B91421E76A7943735831
:102A90002BB901201368B84023EA00031360636D6B
:102AA000C3F10701E362A1610124116804FA03F094
:102AB000084310601420294600FB0360FEF704FF62
:102AC0002046F8BD880C0020940C0020340D002016
:102AD000044B1A681AB119688A6D01328A65186840
:102AE000704700BF880C00200022024B1A605A6019
:102AF0009A607047B40D00200A4A30B591680729E2
:102B00000ED8136805790133006802EBC304013164
:102B100003F007036060257213609160012030BDEF
:102B2000002030BDB40D0020054A906838B101384E
:102B3000906001205368013303F00703536070472E
:102B4000B40D0020064B9A6842B15A68013203EB7B
:102B5000C2031A7A5B680271012203601046704753
:102B6000B40D0020094B9A683AB11A683AB993F843
:102B700048205B6C0271012203601046704703EB32
:102B8000C2031A7A5B680271F5E700BFB40D00203A
:102B9000F8B507460026074C6568A3689E4200D337
:102BA000F8BD013504EBC5000430B847013605F027
:102BB0000705F2E7B40D002030B5002289B00121ED
:102BC0000A20FFF77DF9144C0625206002A800F0CA
:102BD000EDFC124800F0F2FC00230DF107011A464B
:102BE0002068FFF745FA01280CD006208DF8075021
:102BF00000F01CFD00F02AFD00F032F90A20FFF77A
:102C00007BFDE9E79DF8070000F010FD00F01EFDD8
:102C100000F026F9E0E700BF000E00203800002099
:102C200037B5074D02AC04F8010D002321461A46C2
:102C30002868FFF767F90128F7D103B030BD00BF5E
:102C4000000E0020024B1860024B1960704700BF55
:102C5000281000202C1000200F4B104A1B6812680F
:102C60001B681068A3F2FF7313F5167F0DDBB3F535
:102C7000167F0CDCA0F2FF7010F5167F09DBB0F5B3
:102C8000167FD4BF00200120704704207047022027
:102C900070470320704700BF281000202C10002030
:102CA000F8B54FF400411948FDF7B0FF0446FFF7AF
:102CB000D3FF0646154F4FF400413846FDF7A6FFF7
:102CC000054638B9012C05D10520FFF7A9FF1420CE
:102CD000FFF712FDFFF7C0FF864204460CD0431EEB
:102CE000032B06D8DFE803F0020B0D0F0120FFF7DE
:102CF00097FF1420FFF700FD26462C46DBE7022055
:102D0000F5E70320F3E70420F1E700BF00100140DE
:102D1000F8B50022202105461648FDF77DFF002268
:102D200040211448FDF778FF08240127114E013C8B
:102D300007FA04F22A4018BF012210213046FDF79D
:102D40006BFF012000F090FC012208210948FDF7EB
:102D500063FF012000F088FC002208210548FDF7F0
:102D60005BFF002CE3D1BDE8F8400122402101487F
:102D7000FDF752BF00080140F8B5012220210546A9
:102D80001648FDF749FF002240211448FDF744FF93
:102D900008240127114E013C07FA04F22A4018BF0B
:102DA000012210213046FDF737FF012000F05CFCC6
:102DB000012208210948FDF72FFF012000F054FCF3
:102DC000002208210548FDF727FF002CE3D1BDE8CC
:102DD000F840012240210148FDF71EBF00080140D4
:102DE00010B5114C002280212046FDF715FF0A2066
:102DF00000F03AFC012280212046FDF70DFF212042
:102E0000FFF786FFB020FFF783FF0420FFF780FF66
:102E10001420FFF77DFF2020FFF77AFFBDE8104068
:102E20000C20FFF775BF00BF00080140052928BF2F
:102E300005215423542888BF532003FB0101014B73
:102E400019607047FC0F00200023044AC15C9954AC
:102E50000133B3F5FC7FF9D1704700BF040E0020A9
:102E600038B50024044D285D0134FFF785FFB4F523
:102E7000FC7FF8D138BD00BF040E0020002370B5E0
:102E80000A4C0B4922680B4E551C00EB80008B54FA
:102E900030440D4410F8016FEE540133052BF9D185
:102EA000002306328B54226070BD00BFFC0F00204F
:102EB000040E0020043C000810B5441E14F8010F55
:102EC00000B910BDFFF7DAFFF8E70000002319464C
:102ED000034A99540133B3F5FC7FFAD1704700BF20
:102EE000040E00202F2928BF2F2153284FF0540310
:102EF00028BF532010B5CC0803FB04000123064C67
:102F000001F007018B40215C1AB921EA0303235425
:102F100010BD0B43FBE700BF040E00202DE9F04F6E
:102F200090E88800532B28BF532386682F2F98469C
:102F300085B0894628BF2F270B7891F801A0056935
:102F40000EB1C4681CB92E462DB344691CB39E4211
:102F500028BF1E46544528BF544606EB0802542A93
:102F600007EB040288BFC8F15406302A88BFC7F1B6
:102F700030040DB145698DB94FF0010BAC424DD015
:102F800005F007020BFA02F20092EA19EB084FF083
:102F9000000A01923EE054461E46DBE74FF0010B6B
:102FA000AAEB04049D1B3B1B0293544536D004F04E
:102FB00007020BFA02F20092029AE3082244002769
:102FC000019211E099F8002009EB0701294403FB65
:102FD000021203939278009B07EB08001A400199B4
:102FE000FFF780FF039B0137BE42EBD10134DCE7E2
:102FF00099F8002009EB0A0103FB02120293927870
:10300000009B0AEB08001A400199FFF76BFF029B37
:103010000AF1010A5645EBD10135AFE705B0BDE82D
:10302000F08F00002DE9F04F89B007460191202074
:1030300000210DF1140801F8080001310B29FAD123
:10304000002AB4BF012000204FF000014FF00A0613
:10305000B8BF524292FBF6F506FB15224C1C08F84D
:1030600001202A46ADBB28B108AA14442D2204F839
:103070000C2C8C1C002B18BF1C46DFF86CA0002504
:1030800008EB0403029300260AEB0503DDF804B005
:1030900007EB05090393029B13F8012C2D2A1AD183
:1030A000039B93F828100122B2400A405946484633
:1030B0000136FFF717FF052E0BF1010BEBD10135A0
:1030C000042DE0D1013C07F10407D8D109B0BDE8D7
:1030D000F08F2146BEE7202A03D00AEB8202515D21
:1030E000E1E70022E2E700BF853E00082DE9F04F4E
:1030F00090E81800532B28BF5323876887B02F2CE4
:1031000098460191029228BF2F2491F800B04B7885
:1031100006690FB1C5681DB9374696B3456985B3D1
:103120005F4528BF5F469D4228BF1D4607EB08024A
:10313000542A04EB050288BFC8F15407302A88BF1F
:10314000C4F13005002E69D04669002E66D05B1BA5
:10315000ABEB070B2A191B1B04920593ABEB080B77
:10316000049B9C4268D0059B45461E1901234FEAEB
:10317000D60906F0070603FA06F607EB08030393E1
:1031800022E01D465F46CEE7019B019A0BEB050A44
:103190001B78524409FB03239B78334204D001225D
:1031A00021462846FFF79EFE029B029A1B78924416
:1031B00009FB03AA9AF80230334204D000222146C8
:1031C0002846FFF78FFE0135039B9D42DCD1013479
:1031D000C6E7019B1A7803EB0A010BFB02129278F7
:1031E00012EA090F05D0012203990AEB0800FFF744
:1031F00079FE029B1A7803EB0A010BFB021292780C
:1032000012EA090F05D0002203990AEB0800FFF724
:1032100069FE0AF1010A5745DBD10136B5420BD0F0
:10322000012306F0070903FA09F933194FEAD60B0F
:103230004FF0000A0393EEE707B0BDE8F08F0000FF
:10324000014B1860704700BF30100020074B1A6810
:103250000AB901221A6019684A08C90744BF82F0F6
:10326000004282F057021A60186870473010002040
:103270000A22022370B50546002486B08DE80C00B2
:10328000074E6B689C4201D306B070BD314668465C
:10329000FFF744FE009B01340A330093F1E700BFBF
:1032A000B14200080268042302214320FFF7BABE9E
:1032B000036801330360704710B544680648FFF7A0
:1032C000C3FD2046FFF7D4FF2046FFF7EBFFBDE824
:1032D00010400248FFF75CBCB9400008E13200082A
:1032E00030B5046887B00546D4B11822002168467D
:1032F00000F0AFFC14239C4201939CBF152305935F
:103300002B798ABF153C04940094032B08D8DFE87E
:1033100003F002090C0F084A08496846FFF7E6FE69
:1033200007B030BD064A0749F7E7074A0749F4E7FF
:10333000074A0849F1E700BF784000083740000815
:10334000F23E0008B13E0008F63F0008B53F000815
:10335000743F0008333F000813B500240094FFF7C2
:1033600075FF00F0030002280ED003280ED00128BC
:1033700003D002238DF8043001E08DF80440684644
:10338000FFF7BAFB02B010BD0123F3E78DF804008C
:10339000F5E700007FB50646456804786846FFF704
:1033A000D1FB08BBFFF7D8FF6846FFF7DBFB30B166
:1033B000EB68009A15339A4201D9FFF7CDFF062C2E
:1033C0001DD16B692A691344632B16D90023314838
:1033D0006B61FFF7DDFB6B6823B900F00FF92E4836
:1033E00000F0ECF804B070BD009B692BDCD96B6871
:1033F000013B6B60FFF798FBD6E76B61EBE7052CB1
:1034000003D1264800F0DAF8E5E702A874683678B8
:10341000FFF798FB18B96368013B6360DBE7029B29
:10342000A3F14202262A20D8542B94BFA3F14102D3
:10343000C3F16902642353431522B3FBF2F3012E57
:1034400015D19DF80C20002AE5D1002BE3D022698C
:1034500021688A423CBF520022610A22B3FBF2F388
:103460000B442360FFF760FBB5E70023E7E7032E7B
:1034700004D19DF80C20012ACDD1E6E7042E03D11A
:103480009DF80C20032AF7E7022EDED19DF80C20D0
:10349000022AF1E7B13200081800002028000020BD
:1034A00005220A2108B543685A60D96000223221FA
:1034B0001A6019615A619868FFF7C2FEBDE80840BA
:1034C000FFF712BB7047052243685A6070470378C4
:1034D000052B01D100F092B87047000010B5446888
:1034E0000848FFF7B1FC2046FFF7C2FE2046FFF771
:1034F000D9FE06200321FFF799FCBDE810400248E1
:10350000FFF7DABCB9400008BA42000870470378F8
:10351000052B01D100F072B87047000010B5446867
:103520000848FFF791FC2046FFF7A2FE2046FFF770
:10353000B9FE0E200321FFF779FCBDE810400248D8
:10354000FFF7BABCB9400008C4420008436805212F
:103550000020012283E807007047000010B544688E
:103560000848FFF771FC2046FFF782FE2046FFF770
:1035700099FE0E200321FFF759FCBDE810400248D8
:10358000FFF79ABCB9400008CB4200080378062B2D
:1035900004D142689368013393607047052B02D1D0
:1035A000014800F00BB87047080000204FF0FF32D0
:1035B000014B1A609860704700100020084A08B557
:1035C0001368022B0AD0591C02EB830318610368AD
:1035D00011600BB1101D9847002008BD012008BDE7
:1035E00000100020044B1A68511C1ABF03EB820321
:1035F000D8680020704700BF0010002008B5FFF712
:10360000F1FF68B1C3680BB1064898470020064A2D
:103610001368991C02EB8101013B4860136008BDEF
:10362000012008BD041000200010002010B5044641
:10363000FFF7D8FF044A147128B143681BB1BDE8F5
:103640001040101D184710BD0010002010B5FFF7E6
:10365000C9FF28B183681BB1BDE810400148184775
:1036600010BD00BF0410002040F20C01C0F20001A8
:1036700000FB01F00138FDD1704708B50120FEF7CD
:103680000DF9FBE70268054B9A4205D1044A054B48
:103690001188528819605A60704700BF00240140A9
:1036A000181000201C100020282210B594B00DEB3B
:1036B0000200002100F0CDFA142200210DEB0200DF
:1036C00000F0C7FA0021102201A800F0C2FA4FF45E
:1036D0008033022401220B9312934FF4E0130AA8C3
:1036E0000A920E9213931194FDF79CFA0F234FF454
:1036F000806205930023214605A807930892099349
:103700000694FDF757FC4FF4004301A8019403937E
:10371000FDF730FD14B010BD80B5734D94B0FCF7CB
:1037200017FDFFF7C1FF102200210DA800F091FA4C
:10373000AB69002243F01003AB61AB69F82103F0E1
:1037400010030393039BAB69684843F02003AB610C
:10375000AB69002403F020030493049BAB690127A9
:1037600043F00403AB61AB694FF0020803F00403BC
:103770000593059BAB695E4E43F00803AB61AB69F3
:1037800003F008030693069BFDF746FA4FF4004347
:103790000DA958480D930E940F97FDF757F9F8238C
:1037A0000DA952480D930E970F94CDF84080FDF768
:1037B0004DF96B6922463B436B616B6905213B40C8
:1037C00002930B20029BFCF7FFFF0B20FDF730F864
:1037D000494D4A4B28462B604FF48073AB604FF441
:1037E0006023EF60EB616C616C60C5F810800D9434
:1037F0000E940F94FCF754FF07230DA928460F934E
:103800000D970E97FCF77AFD0DA92846CDF8348068
:10381000CDF83880FCF772FD1022214609A800F08F
:1038200018FA21461C220DA80794089400F011FAFA
:103830004FF0804240F2374386E80C0040F2CF73ED
:10384000F36080233046B361B4603461FDF722FF3A
:103850004FF4805309A930460993FDF783FD3046A4
:10386000FDF732FF07A9304607940894FDF7D4FF0F
:1038700060230C220DA930460D930E940F941194E1
:10388000FDF768FF304600F0E5F842461C4928463F
:10389000FCF756FE2846FCF7EDFDFFF7A1FAFFF70F
:1038A00015FB1849184E081F0DADFFF7CBF90FCEC9
:1038B0000FC5336821460DA82B60FDF7D6FF134BCB
:1038C0006422186012492346019400971148FEF7BC
:1038D000F5FC234664221049019400970F48FEF737
:1038E000EDFCFDF7BDFFFEE70010024000080140BF
:1038F000AC100020001001403810002000240140CE
:1039000018100020201000208C3C000834100020EB
:10391000D1420008A12C0008DA420008B92B0008A7
:103920000268034B9A4201D1FCF724BC704700BFE8
:103930000008004070470000114B07B59A690F213D
:1039400042F001029A619A696FF0010002F00102EF
:103950000092009ADA6942F08052DA61DB69002253
:1039600003F080530193019BFCF72EFF054A536837
:1039700023F0E06343F00073536003B05DF804FB91
:10398000001002400000014030B5054687B010220B
:10399000002102A800F05DF92A68214B9A423CD12F
:1039A00003F56C439A691F4842F400729A619A6960
:1039B00002A902F400720092009A9A691A4C42F02D
:1039C00004029A619B6903F004030193019B06239F
:1039D000029303230393FDF739F88022E2604FF44A
:1039E000807222614FF48062104B6261236020225A
:1039F000002320466360A360A261E361FCF724FF1B
:103A000008B1FFF797FF2C621220002205216562A2
:103A1000FCF7DAFE1220FCF70BFF07B030BD00BF49
:103A20000024014000080140681000200800024006
:103A3000036882B0B3F1804F0AD103F50433DA6929
:103A400042F00102DA61DB6903F001030193019B9B
:103A500002B0704710B5044686B01022002102A8BB
:103A600000F0F7F82368B3F1804F1DD103F504335C
:103A70009A6902A942F008029A619B690B4803F017
:103A800008030193019B4FF4006302930223039305
:103A90000593FCF7DBFF064A536823F4407343F0B9
:103AA000E06343F40073536006B010BD000C0140A6
:103AB0000000014010B5014688B000221E20FCF72E
:103AC00083FE1E20FCF7B4FE144B01A9DA6903A89B
:103AD00042F00402DA61DB69114C03F00403029343
:103AE000029BFDF729FBFDF717FB0E4B40002360FF
:103AF00040F2E733E3600C4BB0FBF3F000230138F6
:103B0000606020462361A360FDF7C4FD20B9204614
:103B1000FDF71CFC08B010BD0120FBE700100240BF
:103B2000EC1000200008004040420F007047FEE704
:103B3000FEE7FEE7FEE770470148FCF7F3BE00BF73
:103B4000681000200148FCF755BB00BF381000206A
:103B50000148FDF7C4BC00BFEC1000200F4B1A68F1
:103B600042F001021A6059680D4A0A405A601A6808
:103B700022F0847222F480321A601A6822F48022C1
:103B80001A605A6822F4FE025A604FF41F029A60CB
:103B90004FF00062034B9A60704700BF0010024074
:103BA0000000FFF800ED00E0002103E00B4B5B5844
:103BB000435004310A480B4B42189A42F6D30A4A42
:103BC00002E0002342F8043B084B9A42F9D3FFF786
:103BD000C5FF00F00FF8FFF79FFD70471443000882
:103BE000000000204C0000204C0000202C11002080
:103BF000FEE7000070B500250C4E0D4CA41BA41070
:103C0000A54209D100F02EF800250A4E0A4CA41B4B
:103C1000A410A54205D170BD56F82530984701354E
:103C2000EEE756F8253098470135F2E70C430008D7
:103C30000C4300080C4300081043000810B5431E55
:103C40000A44914200D110BD11F8014B03F8014F15
:103C5000F7E703460244934200D1704703F8011B83
:103C6000F9E70000F8B500BFF8BC08BC9E467047F5
:0C3C7000F8B500BFF8BC08BC9E467047C9
:103C7C0002030405060708090A0B0C0D0E0F1010A1
:103C8C00E74200087B36000800000000000000003E
:103C9C008000000049444C4500000000000000007A
:103CAC005F00000007000700147F147F14242A7F94
:103CBC002A1223130864623649552250000503006A
:103CCC0000001C2241000041221C0014083E081474
:103CDC0008083E08080050300000080808080800D2
:103CEC006060000020100804023E5149453E00422D
:103CFC007F400042615149462141454B3118141215
:103D0C007F1027454545393C4A4949300171090521
:103D1C00033649494936064949291E003636000002
:103D2C000056360000081422410014141414140018
:103D3C00412214080201510906324979413E7E1193
:103D4C0011117E7F494949363E414141227F414113
:103D5C00221C7F494949417F090909013E414949D2
:103D6C007A7F0808087F00417F41002040413F01D5
:103D7C007F081422417F404040407F020C027F7F2D
:103D8C000408107F3E4141413E7F090909063E412E
:103D9C0051215E7F09192946464949493101017F64
:103DAC0001013F4040403F1F2040201F3F40384012
:103DBC003F631408146307087008076151494543B1
:103DCC00007F41410002040810200041417F0004A3
:103DDC000201020440404040400001020400205413
:103DEC005454787F4844443838444444203844443C
:103DFC00487F3854545418087E0901020C52525210
:103E0C003E7F0804047800447D40002040443D007F
:103E1C007F1028440000417F40007C041804787C0B
:103E2C000804047838444444387C141414080814E6
:103E3C0014187C7C080404084854545420043F444F
:103E4C0040203C4040207C1C2040201C3C4030400A
:103E5C003C44281028440C5050503C4464544C446E
:103E6C00000836410000007F0000004136080010B9
:103E7C00080810087846414678001F111F00001FE3
:103E8C0000001915120011151F0007041F0017154B
:103E9C001D001F151D00190503001F151F00171508
:103EAC001F0004040415150000000000F8FC0603B4
:103EBC00F3FBF30306FCF800000000000C1E336358
:103ECC00CB9B397CFEFFFFFFFE7C399BCB63331E03
:103EDC000C00000000000103060C191B190C060352
:103EEC00010000000000151500000000000000F8A3
:103EFC00FC0C040CFCF80000000000000000000C9E
:103F0C001C3464C683010000000183C664341C0C9D
:103F1C00000000000000000000010306040603017D
:103F2C00000000000000001515000080C0603098F3
:103F3C00CCE6F3833E7C6060606060C080000E1F46
:103F4C003164CE9F3F7FFFFF3F9FCECECECECEC4FF
:103F5C00603F1F00000000000103060C19180F073A
:103F6C00000000000000000015150000000080C0DB
:103F7C006030180C7CC08080808080800000000045
:103F8C00000E1B3160C0800000C060313131313116
:103F9C003B1F0000000000000000000103060700AA
:103FAC0000000000000000000015150080C06060DB
:103FBC006060607C3E83F3E6CC983060C08000008B
:103FCC001F3F60C4CECECECECE9F3FFFFF7F3F9F24
:103FDC00CE64311F0E0000000000000000070F1817
:103FEC00190C0603010000000000151500000080EC
:103FFC008080808080C07C0C183060C08000000005
:10400C000000001F3B313131313160C0000080C0F5
:10401C0060311B0E000000000000000000000000DA
:10402C0007060301000000000000001515000080C9
:10403C00C0603098CCE6F3FBF3E6CC983060C080DF
:10404C000000060F19181AFBF3070FFFFFFF0F07ED
:10405C00F3FB1A18190F06000000000003070C18D8
:10406C00191B19180C07030000000000151500009F
:10407C00000080C06030180C040C183060C0800048
:10408C000000000000060705040CF8F0000000F02A
:10409C00F80C0405070600000000000000000003F7
:1040AC0007060406070300000000000000FF0101E2
:1040BC0001010101010101010101010101010101E4
:1040CC0001010101010101010101010101010101D4
:1040DC0001010101010101010101010101010101C4
:1040EC000101010101010101010101010101FF01B6
:1040FC0001010101010101010101010101010101A4
:10410C00FF01010101010101010101010101010195
:10411C000101010101010101010101010101010183
:10412C000101010101010101010101010101010173
:10413C000101010101010101010101010101010163
:10414C000101FFFFFFFFFFFFFFFFFFFFFFFFFFFF6F
:10415C00FFFFFFFFFF000000000000000000000058
:10416C000000000000000000000000000000000043
:10417C000000000000000000000000000000000033
:10418C000000000000000000000000000000000023
:10419C00000000000000FFFFFFFFFFFFFFFFFFFF1D
:1041AC00FFFFFFFFFFFFFFFFFF000000000000000C
:1041BC0000000000000000000000000000000000F3
:1041CC0000000000000000000000000000000000E3
:1041DC0000000000000000000000000000000000D3
:1041EC0000000000000000000000FFFFFFFFFFFFC9
:1041FC00FFFFFFFFFFFFFFFFFFFFFFFFFF000000C0
:10420C0000000000000000000000000000000000A2
:10421C000000000000000000000000000000000092
:10422C000000000000000000000000000000000082
:10423C000000000000000000000000000000FFFF74
:10424C00FFFFFFFFFFFFFFFFFFFFFFFFFFFFFFFF72
:10425C00FF00000000000000000000000000000053
:10426C000000000000000000000000000000000042
:10427C000000000000000000000000000000000032
:10428C000000000000000000000000000000000022
:10429C000000FFFFFFFFFFFFFFFFFFFFFFFFFFFF20
:1042AC00FFFFFFFFFF070502070F1E0F0702476105
:1042BC006D65204F76657200526573756D650053A0
:1042CC0074617274004A6F79737469636B0047612F
:1042DC006D6520636F6E74726F6C006465666175DA
:1042EC006C745461736B000000000000000000014E
:1042FC000203040607080900000000010203040081
:04430C00350100086F
:04431000110100088F
:1043140001000000AAAAAAAAA13400089533000843
:10432400B932000800000000DD340008CF34000872
:10433400C5340008C73400081D3500080F350008CF
:104344000D350008000000004D3500088D350008CB
:0C4354005D3500080000000000A24A04D3
:0400000508003BA90B
:00000001FF
